S024000049484D5F456E766173655F4C756361734D4D5F4D61746865757352572E7372656391
S11300000C9434000C9473020C9487020C945100E9
S11300100C9451000C9451000C9451000C94510018
S11300200C9451000C9451000C9451000C94510008
S11300300C9451000C9451000C9451000C945100F8
S11300400C9451000C9451000C9451000C945100E8
S11300500C9451000C9451000C9451000C945100D8
S11300600C9451000C94510011241FBECFEFD8E022
S1130070DEBFCDBF11E0A0E0B1E0EAE4FBE002C0E6
S113008005900D92AA3CB107D9F721E0AAECB1E0A2
S113009001C01D92A23DB207E1F70E940A010C942F
S11300A0A3050C940000662319F0613019F003C015
S11300B0599801C0599A9BB19F70282F207F922B89
S11300C09BB945E04A95F1F70000589A95E09A9556
S11300D0F1F70000589840EF4A95F1F72BB1922FB1
S11300E09F7040E1849F90011124292B2BB995E046
S11300F09A95F1F70000589A45E04A95F1F7000007
S1130100589890EF9A95F1F7843040F4611106C045
S11301108FE39FE10197F1F700C000008BB18F706E
S11301208BB90895599858982FEF89EF90E0215092
S113013080409040E1F700C000008BB18F70806375
S11301408BB925E02A95F1F70000589A85E08A9545
S1130150F1F70000589890EF9A95F1F78FE19EE43B
S11301600197F1F700C0000095E09A95F1F70000BF
S1130170589A25E02A95F1F70000589880EF8A955F
S1130180F1F78FE193E00197F1F700C0000095E0EB
S11301909A95F1F70000589A25E02A95F1F70000A6
S11301A0589880EF8A95F1F78BB18F7080628BB984
S11301B095E09A95F1F70000589A25E02A95F1F711
S11301C00000589880EF8A95F1F760E088E20E9479
S11301D0530060E088E00E94530060E081E00E94E8
S11301E0530060E08CE00E94530060E080E80E94CD
S11301F053000895CF93DF93EC018881882339F06D
S1130200219661E00E94530089918111FACFDF9118
S1130210CF910895CF93DF93CDB7DEB761970FB633
S1130220F894DEBF0FBECDBFE9E6F0E080818A60BE
S113023080838DB383608DBB14B888E387B983EF63
S11302408AB978940E94920082E091E00E94FA00B8
S11302502FEF37EA81E6215030408040E1F700C0BB
S113026000000F2EFFE0AF2EF1E0BF2EF02D0F2E79
S1130270F1E19F2EF02DFE0131966F010F2EF3E078
S11302808F2EF02D04E06894772471F80F2EFBEC88
S1130290EF2EF1E0FF2EF02D8091D101843038F45F
S11302A08230D0F7882351F0813069F013C1843053
S11302B009F44BC0853009F404C10CC10093D10189
S11302C01092D001E9CF60E081E00E94530060E029
S11302D080E80E94530080EC91E00E94FA0010E054
S11302E02FC060E080EC0E94530060E080E3810F47
S11302F00E9453001F9B0EC0193010F41F5F01C0F1
S113030010E0FFEF20E732E0F15020403040E1F709
S113031000C00000309B0EC0112311F0115001C029
S113032019E08FEF90E7E2E081509040E040E1F780
S113033000C00000319B04C080E3810FF70180837B
S11303408091D101813069F2A7CF8091CA0190E0F8
S113035001969F938F93809100011F928F93BF9278
S1130360AF921F929F92DF92CF920E94AB0260E005
S113037080EC0E945300C6010E94FA008091D001D3
S11303800FB6F894DEBF0FBECDBF823051F128F412
S1130390882341F08130A1F07FCF833081F1843014
S11303A0E1F17ACF60E080E80E94530083E291E0BB
S11303B00E94FA001E9970CF81E08093D0016CCF27
S11303C060E080E80E94530083E391E00E94FA0019
S11303D0439A449A199960CF1B995ECF7092D001C9
S11303E05BCF60E080E80E94530083E491E00E94C8
S11303F0FA0045981C9950CF8092D0014DCF60E00F
S113040080E80E94530083E591E00E94FA00459A37
S11304101D9942CF0093D0013FCF60E080E80E9455
S1130420530083E691E00E94FA0043984498189997
S113043033CF1A9931CF60E080E80E94530083E7FC
S113044091E00E94FA003FEF87EA91E63150804044
S11304509040E1F700C000008091CA018F5F809353
S1130460CA0190910101891329C0809100018F5F15
S1130470809300011092CA0160E080E80E9453005A
S113048083E891E00E94FA00EFEFF3ED20E3E150FE
S1130490F0402040E1F700C0000060E080E80E94E6
S11304A0530083E991E00E94FA003FEF83ED90E36B
S11304B0315080409040E1F700C000001092D0011C
S11304C0EBCE60E080E80E94530083EA91E00E9452
S11304D0FA00E2CE60E081E00E94530083EB91E0F9
S11304E00E94FA00D9CE1F920F920FB60F921124D8
S11304F08F9386E08093D101449A459A43984A9B0E
S1130500FECF8F910F900FBE0F901F9018951F92E2
S11305100F920FB60F9211248F939F938091D10164
S1130520843039F08091D101853029F08091D10156
S113053003C085E001C084E08093D1018FE39CE98E
S11305400197F1F700C000009F918F910F900FBEAB
S11305500F901F901895AEE0B0E0E1EBF2E00C9440
S11305607A050D891E898F89988D26E02C831A833C
S1130570098397FF02C080E090E801979E838D83F2
S1130580AE01455E5F4F698D7A8DCE0101960E9462
S1130590DB024D815E8157FD0AC02F8138854217E9
S11305A053070CF49A01F801E20FF31F10822E9600
S11305B0E4E00C949605ABE0B0E0E1EEF2E00C94DC
S11305C06C056C017B018A01FC0117821682838110
S11305D081FFCCC1CE0101963C01F6019381F70164
S11305E093FD859193FF81917F01882309F4BAC11A
S11305F0853239F493FD859193FF81917F01853292
S113060029F4B60190E00E94D204E7CF912C212C6A
S1130610312CFFE1F315D8F08B3279F038F48032C5
S113062079F08332A1F4232D20611DC08D3261F055
S1130630803369F4232D216016C0832D8260382E07
S1130640E32DE4603E2E2AC0F32DF8601DC037FC74
S11306502DC020ED280F2A3040F08E32B9F436FC3C
S113066081C1232D2064322E19C036FE06C08AE0D3
S1130670989E200D1124922E11C0EAE02E9E200D8A
S11306801124222EF32DF0623F2E08C08C3621F463
S1130690832D8068382E02C0883641F4F70193FD1B
S11306A0859193FF81917F018111B3CF982F9F7D15
S11306B09554933028F40C5F1F4F9FE399830DC02A
S11306C0833631F0833771F0833509F059C021C086
S11306D0F801808189830E5F1F4F88248394912CB5
S11306E0530113C02801F2E04F0E511CF801A08001
S11306F0B18036FE03C0692D70E002C06FEF7FEF5A
S1130700C5010E94C7044C018201F32DFF773F2EDF
S113071016C0280122E0420E511CF801A080B180CD
S113072036FE03C0692D70E002C06FEF7FEFC50194
S11307300E94BC044C01F32DF0683F2E820133FC6F
S11307401BC0822D90E088169906B0F4B60180E2B1
S113075090E00E94D2042A94F4CFF50137FC8591ED
S113076037FE81915F01B60190E00E94D20421100E
S11307702A9421E0821A91088114910471F7E8C047
S1130780843611F0893641F5F80137FE07C06081DF
S11307907181828193810C5F1F4F08C060817181D8
S11307A0072E000C880B990B0E5F1F4FF32DFF765D
S11307B03F2E97FF09C090958095709561957F4F66
S11307C08F4F9F4FF0683F2E2AE030E0A3010E9434
S11307D00E05882E861845C0853731F4232D2F7ECB
S11307E0B22E2AE030E025C0932D997FB92E8F36A2
S11307F0C1F018F4883579F0B5C0803719F088371E
S113080021F0B0C0E92FE061BE2EB4FE0DC0FB2D77
S1130810F460BF2E09C034FE0AC0292F2660B22E10
S113082006C028E030E005C020E130E002C020E14D
S113083032E0F801B7FE07C0608171818281938143
S11308400C5F1F4F06C06081718180E090E00E5FF5
S11308501F4FA3010E940E05882E8618FB2DFF77DB
S11308603F2E36FE0DC0232D2E7FA22E891458F460
S113087034FE0BC032FC09C0832D8E7EA82E05C029
S1130880B82CA32C03C0B82C01C0B92CA4FE0FC0F3
S1130890FE01E80DF11D8081803321F49A2D997EAB
S11308A0A92E09C0A2FE06C0B394B39404C08A2D35
S11308B0867809F0B394A3FC11C0A0FE06C0B2145C
S11308C088F4280C922C9B180EC0B21460F4B60164
S11308D080E290E00E94D204B394F7CFB21418F4EB
S11308E02B1802C0982C212CA4FE10C0B60180E362
S11308F090E00E94D204A2FE17C0A1FC03C088E7C6
S113090090E002C088E590E0B6010CC08A2D86789C
S113091059F0A1FE02C08BE201C080E2A7FC8DE287
S1130920B60190E00E94D204891438F4B60180E341
S113093090E00E94D2049A94F7CF8A94F301E80DD0
S1130940F11D8081B60190E00E94D2048110F5CFA0
S1130950222009F442CEB60180E290E00E94D20443
S11309602A94F6CFF6018681978102C08FEF9FEF1C
S11309702B96E2E10C948805FC01059061507040CF
S11309800110D8F7809590958E0F9F1F0895FC0154
S11309906150704001900110D8F7809590958E0FAA
S11309A09F1F08950F931F93CF93DF93FB01238120
S11309B021FD03C08FEF9FEF2CC022FF16C046819C
S11309C05781248135814217530744F4A081B181B2
S11309D09D012F5F3F4F318320838C932681378184
S11309E02F5F3F4F3783268314C08B01EC01FB013B
S11309F00084F185E02D0995892BE1F6D80116963E
S1130A008D919C911797019617969C938E931697A8
S1130A10CE01DF91CF911F910F910895FA01AA277A
S1130A20283051F1203181F1E8946F936E7F6E5F2D
S1130A307F4F8F4F9F4FAF4FB1E03ED0B4E03CD0DB
S1130A40670F781F891F9A1FA11D680F791F8A1FBE
S1130A50911DA11D6A0F711D811D911DA11D20D025
S1130A6009F468943F912AE0269F11243019305DDF
S1130A703193DEF6CF010895462F4770405D4193D0
S1130A80B3E00FD0C9F7F6CF462F4F70405D4A331D
S1130A9018F0495D31FD4052419302D0A9F7EACFE5
S1130AA0B4E0A6959795879577956795BA95C9F714
S1130AB000976105710508959B01AC010A2E069407
S1130AC05795479537952795BA95C9F7620F731FC0
S1130AD0841F951FA01D08952F923F924F925F92FD
S1130AE06F927F928F929F92AF92BF92CF92DF923A
S1130AF0EF92FF920F931F93CF93DF93CDB7DEB79F
S1130B00CA1BDB0B0FB6F894DEBF0FBECDBF099432
S1130B102A88398848885F846E847D848C849B8489
S1130B20AA84B984C884DF80EE80FD800C811B8197
S1130B30AA81B981CE0FD11D0FB6F894DEBF0FBEC6
S10D0B40CDBFED010895F894FFCF36
S1130B4A010348656C6C6F20746865726521004CFA
S1130B5A6F7420253032692C20626F782025303258
S1130B6A69200057616974696E6720626F78202072
S1130B7A202000426F78206465746563746564207C
S1130B8A2020004C6F6164696E6720626F782020B0
S1130B9A202000436C6F73696E6720646973702E3A
S1130BAA20200052656C656173696E6720626F78F4
S1130BBA202000426F782066696E69736865642034
S1130BCA2020004C6F742066696E6973686564201E
S1130BDA2020005374617274206E657874206C6FDF
S1130BEA74200053797374656D207061757365643C
S1130BFA2E2E0053595354454D204552524F5200FC
S10D0C0A50617373776F72643A004F
S9030000FC
