:100000000C9434000C9449000C9449000C94490061
:100010000C9449000C9449000C9449000C9449003C
:100020000C9449000C9449000C9449000C9449002C
:100030000C9449000C9449000C9449000C9449001C
:100040000C9449000C9449000C9449000C9449000C
:100050000C9449000C9449000C9449000C944900FC
:100060000C9449000C94490011241FBECFEFD8E036
:10007000DEBFCDBF11E0A0E0B1E0E2EEF1E002C0F2
:1000800005900D92AE30B107D9F70E94E8000C94AC
:10009000EF000C940000662319F0613019F0089508
:1000A000599801C0599A9BB1907F282F2F70922B9D
:1000B0009BB995E09A95F1F70000589A95E09A95CA
:1000C000F1F70000589890EF9A95F1F79BB1907F67
:1000D0009BB9611108C0843030F48FE39FE1019730
:1000E000F1F700C0000008958AB18F608AB959986D
:1000F00058982FEF89EF90E0215080409040E1F731
:1001000000C0000025E02A95F1F70000589A85E02C
:100110008A95F1F70000589890EF9A95F1F78FE1E2
:100120009EE40197F1F700C0000095E09A95F1F781
:100130000000589A25E02A95F1F70000589880EFC2
:100140008A95F1F78FE193E00197F1F700C0000085
:1001500095E09A95F1F70000589A25E02A95F1F775
:100160000000589880EF8A95F1F7599A95E09A9592
:10017000F1F70000589A25E02A95F1F70000589809
:1001800080EF8A95F1F760E088E20E944B0060E022
:1001900088E00E944B0060E081E00E944B0060E03C
:1001A0008CE00E944B0060E080E80E944B000895C4
:1001B000CF93DF93EC018881882339F021966BB1CE
:1001C0000E944B0089918111FACFDF91CF91089560
:1001D0000E94740080E091E00E94D800FFCFF89464
:0201E000FFCF4F
:0E01E20068656C6C6F2C20576F726C64210086
:00000001FF
