:100000000C9434000C9498020C94AC020C945100A3
:100010000C9451000C9451000C9451000C9451001C
:100020000C9451000C9451000C9451000C9451000C
:100030000C9451000C9451000C9451000C945100FC
:100040000C9451000C9451000C9451000C945100EC
:100050000C9451000C9451000C9451000C945100DC
:100060000C9451000C94510011241FBECFEFD8E026
:10007000DEBFCDBF11E0A0E0B1E0E4E9FBE002C0EB
:1000800005900D92AE3DB107D9F721E0AEEDB1E09C
:1000900001C01D92A63EB207E1F70E940A010C942E
:1000A000C8050C940000662319F0613019F003C0F4
:1000B000599801C0599A9BB19F70282F207F922B8D
:1000C0009BB945E04A95F1F70000589A95E09A955A
:1000D000F1F70000589840EF4A95F1F72BB1922FB5
:1000E0009F7040E1849F90011124292B2BB995E04A
:1000F0009A95F1F70000589A45E04A95F1F700000B
:10010000589890EF9A95F1F7843040F4611106C049
:100110008FE39FE10197F1F700C000008BB18F7072
:100120008BB90895599858982FEF89EF90E0215096
:1001300080409040E1F700C000008BB18F70806379
:100140008BB925E02A95F1F70000589A85E08A9549
:10015000F1F70000589890EF9A95F1F78FE19EE43F
:100160000197F1F700C0000095E09A95F1F70000C3
:10017000589A25E02A95F1F70000589880EF8A9563
:10018000F1F78FE193E00197F1F700C0000095E0EF
:100190009A95F1F70000589A25E02A95F1F70000AA
:1001A000589880EF8A95F1F78BB18F7080628BB988
:1001B00095E09A95F1F70000589A25E02A95F1F715
:1001C0000000589880EF8A95F1F760E088E20E947D
:1001D000530060E088E00E94530060E081E00E94EC
:1001E000530060E08CE00E94530060E080E80E94D1
:1001F00053000895CF93DF93EC018881882339F071
:10020000219661E00E94530089918111FACFDF911C
:10021000CF910895CF93DF93CDB7DEB761970FB637
:10022000F894DEBF0FBECDBFE9E6F0E080818A60C2
:1002300080838DB383608DBB14B888E387B983EF67
:100240008AB978940E94920082E091E00E94FA00BC
:100250002FEF37EA81E6215030408040E1F700C0BF
:1002600000006894EE24E2F80F2EF3E0FF2EF02D4C
:100270000F2EF2E2AF2EF1E0BF2EF02D0F2EF1E1A6
:10028000CF2EF02D8E010F5F1F4F6894DD24D1F823
:100290008091E501823009F46EC028F4882361F072
:1002A0008130D9F03CC1843009F474C008F465C0D1
:1002B000853009F42BC133C1F092E5011092E401BD
:1002C00043984498459A1899E3CF1B99E1CF1D991B
:1002D000DFCF81E08093E501DBCF60E081E00E9429
:1002E000530060E080E80E94530083ED91E00E949B
:1002F000FA0010E060E080EC0E9453008FED91E086
:100300000E94FA001F9B04C0309B02C03199FACFB3
:100310001F990FC0193010F41F5F01C010E09FEF4C
:1003200020E732E0915020403040E1F700C000006B
:10033000E1CF30990FC0112311F0115001C019E025
:100340008FEF90E722E0815090402040E1F700C01D
:100350000000D0CF3199CECF80E3810F8093DF01B1
:100360001F5F3FEF80E792E0315080409040E1F71F
:1003700000C00000BFCFF092E50160E080E80E947D
:10038000530082E191E00E94FA00329981CFE0921D
:10039000E5017ECF8091DE0190E001969F938F93DF
:1003A000809100011F928F93BF92AF921F92CF92C4
:1003B0001F930F930E94D00260E080EC0E945300D4
:1003C000C8010E94FA008091E4010FB6F894DEBFE4
:1003D0000FBECDBF823051F128F4882341F0813027
:1003E000A1F056CF833081F18430E1F151CF60E04C
:1003F00080E80E94530086E391E00E94FA001E9973
:1004000047CF81E08093E40143CF60E080E80E9421
:10041000530086E491E00E94FA00439A449A1999A5
:1004200037CF1B9935CFD092E40132CF60E080E81E
:100430000E94530086E591E00E94FA0045981C99BD
:1004400027CFF092E40124CF60E080E80E945300BF
:1004500086E691E00E94FA00459A1D9919CFE09234
:10046000E40116CF60E080E80E94530086E791E047
:100470000E94FA004398449818990ACF1A9908CF15
:1004800060E080E80E94530086E891E00E94FA0054
:100490003FEF87EA91E6315080409040E1F700C09D
:1004A00000008091DE018F5F8093DE019091010159
:1004B000891329C0809100018F5F80930001109201
:1004C000DE0160E080E80E94530086E991E00E942E
:1004D000FA002FEF33ED80E3215030408040E1F708
:1004E00000C0000060E080E80E94530086EA91E0CE
:1004F0000E94FA009FEF23ED30E3915020403040FE
:10050000E1F700C000001092E401C2CE60E080E894
:100510000E94530086EB91E00E94FA00B9CE60E0A1
:1005200081E00E94530086EC91E00E94FA00B0CE78
:100530001F920F920FB60F9211248F9386E0809333
:10054000E501449A459A43984A9BFECF8F910F90BC
:100550000FBE0F901F9018951F920F920FB60F921B
:1005600011248F939F938091E501843039F080911D
:10057000E501853029F08091E50103C085E001C0E7
:1005800084E08093E5018FE39CE90197F1F700C0D7
:1005900000009F918F910F900FBE0F901F901895A4
:1005A000AEE0B0E0E6EDF2E00C949F050D891E8907
:1005B0008F89988D26E02C831A83098397FF02C0C8
:1005C00080E090E801979E838D83AE01455E5F4F8A
:1005D000698D7A8DCE0101960E9400034D815E8166
:1005E00057FD0AC02F813885421753070CF49A0132
:1005F000F801E20FF31F10822E96E4E00C94BB0585
:10060000ABE0B0E0E6E0F3E00C9491056C017B0117
:100610008A01FC0117821682838181FFCCC1CE0141
:1006200001963C01F6019381F70193FD859193FFBB
:1006300081917F01882309F4BAC1853239F493FD91
:10064000859193FF81917F01853229F4B60190E075
:100650000E94F704E7CF912C212C312CFFE1F315F8
:10066000D8F08B3279F038F4803279F08332A1F40B
:10067000232D20611DC08D3261F0803369F4232D5C
:10068000216016C0832D8260382EE32DE4603E2E5B
:100690002AC0F32DF8601DC037FC2DC020ED280FB7
:1006A0002A3040F08E32B9F436FC81C1232D20640B
:1006B000322E19C036FE06C08AE0989E200D112405
:1006C000922E11C0EAE02E9E200D1124222EF32D31
:1006D000F0623F2E08C08C3621F4832D8068382EBE
:1006E00002C0883641F4F70193FD859193FF819113
:1006F0007F018111B3CF982F9F7D9554933028F4BB
:100700000C5F1F4F9FE399830DC0833631F0833711
:1007100071F0833509F059C021C0F80180818983C7
:100720000E5F1F4F88248394912C530113C028011E
:10073000F2E04F0E511CF801A080B18036FE03C0DC
:10074000692D70E002C06FEF7FEFC5010E94EC04DD
:100750004C018201F32DFF773F2E16C0280122E0C5
:10076000420E511CF801A080B18036FE03C0692DF5
:1007700070E002C06FEF7FEFC5010E94E1044C0101
:10078000F32DF0683F2E820133FC1BC0822D90E0D8
:1007900088169906B0F4B60180E290E00E94F70452
:1007A0002A94F4CFF50137FC859137FE81915F01E2
:1007B000B60190E00E94F70421102A9421E0821AE9
:1007C00091088114910471F7E8C0843611F08936DC
:1007D00041F5F80137FE07C0608171818281938104
:1007E0000C5F1F4F08C060817181072E000C880BC1
:1007F000990B0E5F1F4FF32DFF763F2E97FF09C019
:1008000090958095709561957F4F8F4F9F4FF068C1
:100810003F2E2AE030E0A3010E943305882E86187F
:1008200045C0853731F4232D2F7EB22E2AE030E0EB
:1008300025C0932D997FB92E8F36C1F018F48835D5
:1008400079F0B5C0803719F0883721F0B0C0E92FB2
:10085000E061BE2EB4FE0DC0FB2DF460BF2E09C0BA
:1008600034FE0AC0292F2660B22E06C028E030E0F0
:1008700005C020E130E002C020E132E0F801B7FE1F
:1008800007C060817181828193810C5F1F4F06C018
:100890006081718180E090E00E5F1F4FA3010E9494
:1008A0003305882E8618FB2DFF773F2E36FE0DC0B0
:1008B000232D2E7FA22E891458F434FE0BC032FC57
:1008C00009C0832D8E7EA82E05C0B82CA32C03C092
:1008D000B82C01C0B92CA4FE0FC0FE01E80DF11D1B
:1008E0008081803321F49A2D997EA92E09C0A2FE21
:1008F00006C0B394B39404C08A2D867809F0B394EB
:10090000A3FC11C0A0FE06C0B21488F4280C922CDF
:100910009B180EC0B21460F4B60180E290E00E9411
:10092000F704B394F7CFB21418F42B1802C0982C24
:10093000212CA4FE10C0B60180E390E00E94F704D1
:10094000A2FE17C0A1FC03C088E790E002C088E5C2
:1009500090E0B6010CC08A2D867859F0A1FE02C045
:100960008BE201C080E2A7FC8DE2B60190E00E941C
:10097000F704891438F4B60180E390E00E94F7048C
:100980009A94F7CF8A94F301E80DF11D8081B601A6
:1009900090E00E94F7048110F5CF222009F442CEA6
:1009A000B60180E290E00E94F7042A94F6CFF601A7
:1009B0008681978102C08FEF9FEF2B96E2E10C9426
:1009C000AD05FC010590615070400110D8F780958D
:1009D00090958E0F9F1F0895FC016150704001900B
:1009E0000110D8F7809590958E0F9F1F08950F9353
:1009F0001F93CF93DF93FB01238121FD03C08FEF72
:100A00009FEF2CC022FF16C046815781248135817B
:100A10004217530744F4A081B1819D012F5F3F4FDE
:100A2000318320838C93268137812F5F3F4F37831B
:100A3000268314C08B01EC01FB010084F185E02DBD
:100A40000995892BE1F6D80116968D919C911797FF
:100A5000019617969C938E931697CE01DF91CF91B6
:100A60001F910F910895FA01AA27283051F12031E2
:100A700081F1E8946F936E7F6E5F7F4F8F4F9F4F32
:100A8000AF4FB1E03ED0B4E03CD0670F781F891F74
:100A90009A1FA11D680F791F8A1F911DA11D6A0F42
:100AA000711D811D911DA11D20D009F468943F91F5
:100AB0002AE0269F11243019305D3193DEF6CF01F4
:100AC0000895462F4770405D4193B3E00FD0C9F7BA
:100AD000F6CF462F4F70405D4A3318F0495D31FD27
:100AE0004052419302D0A9F7EACFB4E0A69597957A
:100AF000879577956795BA95C9F700976105710550
:100B000008959B01AC010A2E069457954795379599
:100B10002795BA95C9F7620F731F841F951FA01DF3
:100B200008952F923F924F925F926F927F928F9291
:100B30009F92AF92BF92CF92DF92EF92FF920F936C
:100B40001F93CF93DF93CDB7DEB7CA1BDB0B0FB676
:100B5000F894DEBF0FBECDBF09942A883988488833
:100B60005F846E847D848C849B84AA84B984C884C9
:100B7000DF80EE80FD800C811B81AA81B981CE0FC0
:100B8000D11D0FB6F894DEBF0FBECDBFED010895A5
:040B9000F894FFCF07
:100B94000103426F6F74696E672E2E2E2020202071
:100BA4002000526561647920707265737320535418
:100BB40052004C6F7420253032692C20626F7820EB
:100BC40025303269200057616974696E6720626F4D
:100BD400782020202000426F782064657465637457
:100BE4006564202020004C6F6164696E6720626F29
:100BF400782020202000436C6F73696E672064693D
:100C040073702E20200052656C656173696E6720D5
:100C1400626F78202000426F782066696E6973687D
:100C24006564202020004C6F742066696E697368C7
:100C34006564202020005374617274206E6578749A
:100C4400206C6F74200053797374656D2070617526
:100C54007365642E2E0053595354454D204552520A
:0E0C64004F520050617373776F72643A000054
:00000001FF
