:100000000C9434000C943F040C9453040C94510051
:100010000C9451000C9451000C9451000C9451001C
:100020000C9451000C9451000C9451000C9451000C
:100030000C9451000C9451000C9451000C945100FC
:100040000C9451000C9451000C9451000C945100EC
:100050000C9451000C9451000C9451000C945100DC
:100060000C9451000C94510011241FBECFEFD8E026
:10007000DEBFCDBF12E0A0E0B1E0EEEFFEE002C0D7
:1000800005900D92AE32B107D9F722E0AEE2B2E0B0
:1000900001C01D92A633B207E1F70E940A010C9439
:1000A0007D070C940000662319F0613019F003C03D
:1000B000599801C0599A9BB19F70282F207F922B8D
:1000C0009BB945E04A95F1F70000589A95E09A955A
:1000D000F1F70000589840EF4A95F1F72BB1922FB5
:1000E0009F7040E1849F90011124292B2BB995E04A
:1000F0009A95F1F70000589A45E04A95F1F700000B
:10010000589890EF9A95F1F7843040F4611106C049
:100110008FE39FE10197F1F700C000008BB18F7072
:100120008BB90895599858982FEF89EF90E0215096
:1001300080409040E1F700C000008BB18F70806379
:100140008BB925E02A95F1F70000589A85E08A9549
:10015000F1F70000589890EF9A95F1F78FE19EE43F
:100160000197F1F700C0000095E09A95F1F70000C3
:10017000589A25E02A95F1F70000589880EF8A9563
:10018000F1F78FE193E00197F1F700C0000095E0EF
:100190009A95F1F70000589A25E02A95F1F70000AA
:1001A000589880EF8A95F1F78BB18F7080628BB988
:1001B00095E09A95F1F70000589A25E02A95F1F715
:1001C0000000589880EF8A95F1F760E088E20E947D
:1001D000530060E088E00E94530060E081E00E94EC
:1001E000530060E08CE00E94530060E080E80E94D1
:1001F00053000895CF93DF93EC018881882339F071
:10020000219661E00E94530089918111FACFDF911C
:10021000CF910895CF93DF93CDB7DEB763970FB635
:10022000F894DEBF0FBECDBFE9E6F0E080818A60C2
:1002300080838DB383608DBB14B888E387B983EF67
:100240008AB978940E9492008CE091E00E94FA00B2
:100250002FEF33EC89E0215030408040E1F700C0BF
:10026000000085E192E00E94FA009FEF23EC39E064
:10027000915020403040E1F700C0000085E192E05D
:100280000E94FA008FEF93EC29E0815090402040CB
:10029000E1F700C0000085E192E00E94FA003FEF24
:1002A00083EC99E0315080409040E1F700C00000BD
:1002B0006894662462F80F2EF0E5CF2EF1E0DF2E71
:1002C000F02D9E012F5F3F4F3B8B2A8B7A888B88C6
:1002D0000F2EFCE5EF2EF1E0FF2EF02D0F2EF5E0B6
:1002E0005F2EF02D0F2EF8E14F2EF02D0F2EF3E79D
:1002F0002F2EF1E03F2EF02D80913502823009F44F
:10030000BFC028F4882361F0813009F199C284309C
:1003100009F4C6C108F4B7C1853009F488C290C297
:100320001092340243984498459A60E080E80E9415
:10033000530084E191E00E94FA0018998CC21A9946
:100340008AC21D9988C281E08093350284C260E030
:1003500081E00E94530085E0E6E0F1E0AFE2B2E028
:1003600001900D928A95E1F700E010E060E080E8EE
:100370000E94530084E292E00E94FA0060E080EC68
:100380000E945300E02FF0E0E15DFD4F80E3810F1C
:1003900080838FE292E00E94FA001F9B04C0309B92
:1003A00002C03199FACF1F9911C0193010F41F5FA4
:1003B00001C010E03FEF80E792E031508040904074
:1003C000E1F700C000001F9BFECFD0CF309911C0D5
:1003D000112311F0115001C019E02FEF30E782E036
:1003E000215030408040E1F700C00000309BFECF3C
:1003F000BDCF3199BBCF0330B1F544E050E06FE29F
:1004000072E084E291E00E947704892B41F482E05B
:100410008093350260E081E00E94530031C060E0CB
:1004200080EC0E94530089E291E00E94FA009FEF65
:1004300023ED30E3915020403040E1F700C0000050
:1004400060E081E00E94530060E080EC0E94530075
:1004500085E0E6E0F1E0AFE2B2E001900D928A952E
:10046000E1F700E001C00F5F319BFECF8FEF90E717
:1004700022E0815090402040E1F700C0000076CF9C
:1004800060E080E80E94530086E391E00E94FA0059
:100490003FEF89E698E1315080409040E1F700C09D
:1004A000000060E081E00E945300BB24B39460E050
:1004B00080E80E94530083E491E00E94FA0060E02B
:1004C00080EC0E945300809101011F928F93DF9274
:1004D000CF921F926F9221E030E02C0F3D1F3F938F
:1004E0002F930E948504872D982D0E94FA000FB645
:1004F000F894DEBF0FBECDBF1F9B04C0309B02C06F
:100500003199FACF1F9915C080910101883110F4FB
:100510008F5F01C08B2D809301019FEF20E732E0B8
:10052000915020403040E1F700C000001F9BFECFFB
:10053000BECF309915C080910101813011F08150FA
:1005400001C0842D809301018FEF90E722E081505C
:1005500090402040E1F700C00000309BFECFA7CFC5
:100560003199A5CF3FEF80E792E031508040904035
:10057000E1F700C00000319BFECF60E081E00E9407
:1005800053009924939460E080E80E94530085E52D
:1005900091E00E94FA0060E080EC0E945300A92CD8
:1005A000B12C1F929F92FF92EF921F925F9221E0D7
:1005B00030E02C0F3D1F3F932F930E948504872D21
:1005C000982D0E94FA000FB6F894DEBF0FBECDBF83
:1005D0001F9B04C0309B02C03199FACF1F9913C0F2
:1005E00092E6991510F0939402C0992493942FEFFA
:1005F00030E782E0215030408040E1F700C0000049
:100600001F9BFECFC0CF309915C091E0991611F015
:100610009A9404C00F2EF3E69F2EF02D2FEF30E7B3
:1006200082E0215030408040E1F700C00000309B64
:10063000FECFA9CF3199A7CF28EE33E0A29EC0010B
:10064000A39E900DB29E900D1124092E000CAA0BB2
:10065000BB0B8093020190930301A0930401B0931C
:1006600005013FEF80E792E0315080409040E1F794
:1006700000C00000319BFECF60E081E00E9453008B
:1006800083E08093350260E080E80E94530083E6B7
:1006900091E00E94FA003299DEC060923502DBC020
:1006A00080912E0290E001969F938F93809100019C
:1006B0001F928F933F922F921F9281E18F9321E09F
:1006C00030E02C0F3D1F3F932F930E94850460E084
:1006D00080EC0E945300872D982D0E94FA00809193
:1006E00034020FB6F894DEBF0FBECDBF823059F191
:1006F00028F4882341F08130A1F0ADC0833091F11E
:100700008430F1F1A8C060E080E80E94530087E8DF
:1007100091E00E94FA001E999EC081E0809334020D
:100720009AC060E080E80E94530087E991E00E944F
:10073000FA00439A449A19998EC01B998CC082E0A2
:100740008093340288C060E080E80E94530087EA0A
:1007500091E00E94FA0045981C997DC083E0809347
:10076000340279C060E080E80E94530087EB91E09A
:100770000E94FA00459A1D996EC0609234026BC0C7
:1007800060E080E80E94530087EC91E00E94FA004C
:100790004398449818995FC01A995DC060E080E85A
:1007A0000E94530087ED91E00E94FA003FEF87EA34
:1007B00091E6315080409040E1F700C00000809108
:1007C0002E028F5F80932E029091010189132CC01D
:1007D000809100018F5F8093000110922E0260E0F3
:1007E00080E80E94530087EE91E00E94FA002FEF0C
:1007F00033ED80E3215030408040E1F700C000003D
:1008000060E080E80E94530087EF91E00E94FA00C8
:100810009FEF23ED30E3915020403040E1F700C0DE
:10082000000083E0809335021092340214C060E02F
:1008300080E80E94530087E092E00E94FA000BC01B
:1008400043984498459A60E081E00E94530087E114
:1008500092E00E94FA00189902C0199B0CC01A99E4
:1008600002C01B9B08C01C9902C01D9B04C01A99A2
:1008700043CD1C9941CD86E0809335023DCD1F923A
:100880000F920FB60F9211248F9386E0809335025A
:100890004498459A43984A9BFECF8F910F900FBE84
:1008A0000F901F9018951F920F920FB60F92112460
:1008B0008F939F9380913502843039F08091350277
:1008C000853029F08091350203C085E001C084E0C5
:1008D000809335028FE39CE90197F1F700C0000097
:1008E0009F918F910F900FBE0F901F901895FB0155
:1008F000DC014150504030F08D910190801919F485
:100900000020B9F7881B990B0895AEE0B0E0EBE842
:10091000F4E00C9454070D891E898F89988D26E088
:100920002C831A83098397FF02C080E090E8019727
:100930009E838D83AE01455E5F4F698D7A8DCE01BA
:1009400001960E94B5044D815E8157FD0AC02F813A
:100950003885421753070CF49A01F801E20FF31F90
:1009600010822E96E4E00C947007ABE0B0E0EBEB65
:10097000F4E00C9446076C017B018A01FC011782AC
:100980001682838181FFCCC1CE0101963C01F60124
:100990009381F70193FD859193FF81917F018823D6
:1009A00009F4BAC1853239F493FD859193FF8191A1
:1009B0007F01853229F4B60190E00E94AC06E7CFB2
:1009C000912C212C312CFFE1F315D8F08B3279F0EA
:1009D00038F4803279F08332A1F4232D20611DC0D8
:1009E0008D3261F0803369F4232D216016C0832D90
:1009F0008260382EE32DE4603E2E2AC0F32DF8608D
:100A00001DC037FC2DC020ED280F2A3040F08E325B
:100A1000B9F436FC81C1232D2064322E19C036FE74
:100A200006C08AE0989E200D1124922E11C0EAE0A3
:100A30002E9E200D1124222EF32DF0623F2E08C091
:100A40008C3621F4832D8068382E02C0883641F41C
:100A5000F70193FD859193FF81917F018111B3CFC0
:100A6000982F9F7D9554933028F40C5F1F4F9FE380
:100A700099830DC0833631F0833771F0833509F0E7
:100A800059C021C0F801808189830E5F1F4F8824DF
:100A90008394912C530113C02801F2E04F0E511C96
:100AA000F801A080B18036FE03C0692D70E002C05D
:100AB0006FEF7FEFC5010E94A1064C018201F32D6B
:100AC000FF773F2E16C0280122E0420E511CF8018C
:100AD000A080B18036FE03C0692D70E002C06FEFC8
:100AE0007FEFC5010E9496064C01F32DF0683F2E62
:100AF000820133FC1BC0822D90E088169906B0F469
:100B0000B60180E290E00E94AC062A94F4CFF50191
:100B100037FC859137FE81915F01B60190E00E941C
:100B2000AC0621102A9421E0821A910881149104C4
:100B300071F7E8C0843611F0893641F5F80137FEC7
:100B400007C060817181828193810C5F1F4F08C053
:100B500060817181072E000C880B990B0E5F1F4F6F
:100B6000F32DFF763F2E97FF09C0909580957095E5
:100B700061957F4F8F4F9F4FF0683F2E2AE030E006
:100B8000A3010E94E806882E861845C0853731F4F7
:100B9000232D2F7EB22E2AE030E025C0932D997FA1
:100BA000B92E8F36C1F018F4883579F0B5C080378A
:100BB00019F0883721F0B0C0E92FE061BE2EB4FEF5
:100BC0000DC0FB2DF460BF2E09C034FE0AC0292FD2
:100BD0002660B22E06C028E030E005C020E130E0FB
:100BE00002C020E132E0F801B7FE07C060817181E8
:100BF000828193810C5F1F4F06C06081718180E00C
:100C000090E00E5F1F4FA3010E94E806882E861811
:100C1000FB2DFF773F2E36FE0DC0232D2E7FA22EFB
:100C2000891458F434FE0BC032FC09C0832D8E7E2B
:100C3000A82E05C0B82CA32C03C0B82C01C0B92C19
:100C4000A4FE0FC0FE01E80DF11D8081803321F468
:100C50009A2D997EA92E09C0A2FE06C0B394B39422
:100C600004C08A2D867809F0B394A3FC11C0A0FEBD
:100C700006C0B21488F4280C922C9B180EC0B21433
:100C800060F4B60180E290E00E94AC06B394F7CF26
:100C9000B21418F42B1802C0982C212CA4FE10C0FA
:100CA000B60180E390E00E94AC06A2FE17C0A1FC52
:100CB00003C088E790E002C088E590E0B6010CC070
:100CC0008A2D867859F0A1FE02C08BE201C080E235
:100CD000A7FC8DE2B60190E00E94AC06891438F4BE
:100CE000B60180E390E00E94AC069A94F7CF8A9414
:100CF000F301E80DF11D8081B60190E00E94AC0681
:100D00008110F5CF222009F442CEB60180E290E0B6
:100D10000E94AC062A94F6CFF6018681978102C024
:100D20008FEF9FEF2B96E2E10C946207FC01059098
:100D3000615070400110D8F7809590958E0F9F1FDD
:100D40000895FC016150704001900110D8F7809522
:100D500090958E0F9F1F08950F931F93CF93DF934E
:100D6000FB01238121FD03C08FEF9FEF2CC022FFE9
:100D700016C046815781248135814217530744F4B8
:100D8000A081B1819D012F5F3F4F318320838C93E0
:100D9000268137812F5F3F4F3783268314C08B0115
:100DA000EC01FB010084F185E02D0995892BE1F62A
:100DB000D80116968D919C911797019617969C9342
:100DC0008E931697CE01DF91CF911F910F910895C9
:100DD000FA01AA27283051F1203181F1E8946F936C
:100DE0006E7F6E5F7F4F8F4F9F4FAF4FB1E03ED012
:100DF000B4E03CD0670F781F891F9A1FA11D680FB0
:100E0000791F8A1F911DA11D6A0F711D811D911DE2
:100E1000A11D20D009F468943F912AE0269F112457
:100E20003019305D3193DEF6CF010895462F4770BB
:100E3000405D4193B3E00FD0C9F7F6CF462F4F7016
:100E4000405D4A3318F0495D31FD4052419302D074
:100E5000A9F7EACFB4E0A69597958795779567951A
:100E6000BA95C9F700976105710508959B01AC011A
:100E70000A2E06945795479537952795BA95C9F741
:100E8000620F731F841F951FA01D08952F923F921C
:100E90004F925F926F927F928F929F92AF92BF928A
:100EA000CF92DF92EF92FF920F931F93CF93DF9336
:100EB000CDB7DEB7CA1BDB0B0FB6F894DEBF0FBE93
:100EC000CDBF09942A88398848885F846E847D84E0
:100ED0008C849B84AA84B984C884DF80EE80FD80E2
:100EE0000C811B81AA81B981CE0FD11D0FB6F89458
:0E0EF000DEBF0FBECDBFED010895F894FFCF19
:100EFE000103F4010000302020200000426F6F74C7
:100F0E00696E670057616974207374617274207022
:100F1E006F732E00313131310057726F6E67207052
:100F2E00617373776400436F6E662E207061726119
:100F3E006D2E004379636C6520436F756E743A00B5
:100F4E00253032690044656C61793A00253032698A
:100F5E00207300526561647920707265737320533B
:100F6E005452004C6F7420253032692C20626F78F9
:100F7E002025303269200057616974696E672062DE
:100F8E006F782020202000426F782064657465639E
:100F9E00746564202020004C6F6164696E67206266
:100FAE006F782020202000436C6F73696E67206479
:100FBE006973702E20200052656C656173696E67CF
:100FCE0020626F78202000426F782066696E697308
:100FDE00686564202020004C6F742066696E69730A
:100FEE00686564202020005374617274206E6578E9
:100FFE0074206C6F74200053797374656D2070616A
:10100E00757365642E2E0053595354454D20455229
:0E101E00524F520050617373776F72643A0044
:00000001FF
