S024000049484D5F456E766173655F4C756361734D4D5F4D61746865757352572E7372656391
S11300000C9434000C9470010C9484010C945100F1
S11300100C9451000C9451000C9451000C94510018
S11300200C9451000C9451000C9451000C94510008
S11300300C9451000C9451000C9451000C945100F8
S11300400C9451000C9451000C9451000C945100E8
S11300500C9451000C9451000C9451000C945100D8
S11300600C9451000C94510011241FBECFEFD8E022
S1130070DEBFCDBF11E0A0E0B1E0E4E5F3E002C0F3
S113008005900D92AE30B107D9F721E0AEE0B1E0B2
S113009001C01D92A031B207E1F70E9425010C9422
S11300A0A8010C940000662319F0613019F003C014
S11300B0599801C0599A9BB1282F207F922B9BB944
S11300C045E04A95F1F70000589A95E09A95F1F7C2
S11300D00000589840EF4A95F1F79BB140E1849FA6
S11300E090011124292B2BB995E09A95F1F7000082
S11300F0589A45E04A95F1F70000589890EF9A9580
S1130100F1F7843030F48FE39FE10197F1F700C0F9
S113011000000895599858982FEF89EF90E02150E6
S113012080409040E1F700C000008BB180638BB940
S113013025E02A95F1F70000589A85E08A95F1F7B1
S11301400000589890EF9A95F1F78FE19EE401979B
S1130150F1F700C0000095E09A95F1F70000589A75
S113016025E02A95F1F70000589880EF8A95F1F779
S11301708FE193E00197F1F700C0000095E09A95B4
S1130180F1F70000589A25E02A95F1F700005898F5
S113019080EF8A95F1F75D9A95E09A95F1F7000062
S11301A0589A25E02A95F1F70000589880EF8A952F
S11301B0F1F760E088E20E94530060E088E00E946A
S11301C0530060E081E00E94530060E08CE00E94F4
S11301D0530060E080E80E9453000895599A9BB14F
S11301E0282F207F922B9BB935E03A95F1F7000038
S11301F0589A95E09A95F1F70000589830EF3A959F
S1130200F1F72BB130E1839FC0011124822B8BB90C
S113021085E08A95F1F70000589A95E09A95F1F7F0
S11302200000589830EF3A95F1F70895CF93DF9393
S1130230EC018881882331F021960E94EE00899197
S11302408111FBCFDF91CF910895E9E6F0E0808141
S11302508A60808314B888E387B983EF8AB9789475
S11302600E948A0080E091E00E941601449A94E082
S113027032E021E080910F018330E1F780910E019B
S11302808230C9F028F4882341F0813059F0F2CF4C
S11302908330B9F08430D9F0EDCF1E99EBCF2093A1
S11302A00E01E8CF439A449A1999E4CF1B99E2CFFF
S11302B030930E01DFCF45981C99DCCF90930E014B
S11302C0D9CF459A1D99D6CF90930E01D3CF439A97
S11302D0449A1999CFCF1B99CDCF30930E01CACF31
S11302E01F920F920FB60F9211248F9385E0809383
S11302F00F01449A459A43984A9BFECF8F910F90E1
S11303000FBE0F901F9018951F920F920FB60F9269
S113031011248F939F9380910F01833039F0809142
S11303200F01843029F080910F0103C084E001C0E3
S113033083E080930F018FE39CE90197F1F700C0FC
S113034000009F918F910F900FBE0F901F901895F2
S1070350F894FFCF4B
S111035448656C6C6F2074686572652100004A
S9030000FC
