:100000000C9434000C94D0010C94E4010C94510035
:100010000C9451000C9451000C9451000C9451001C
:100020000C9451000C9451000C9451000C9451000C
:100030000C9451000C9451000C9451000C945100FC
:100040000C9451000C9451000C9451000C945100EC
:100050000C9451000C9451000C9451000C945100DC
:100060000C9451000C94510011241FBECFEFD8E026
:10007000DEBFCDBF11E0A0E0B1E0E4E1F4E002C0FA
:1000800005900D92AC3AB107D9F721E0ACEAB1E0A6
:1000900001C01D92AF3AB207E1F70E940A010C9429
:1000A00008020C940000662319F0613019F003C0B7
:1000B000599801C0599A9BB19F70282F207F922B8D
:1000C0009BB945E04A95F1F70000589A95E09A955A
:1000D000F1F70000589840EF4A95F1F72BB1922FB5
:1000E0009F7040E1849F90011124292B2BB995E04A
:1000F0009A95F1F70000589A45E04A95F1F700000B
:10010000589890EF9A95F1F7843040F4611106C049
:100110008FE39FE10197F1F700C000008BB18F7072
:100120008BB90895599858982FEF89EF90E0215096
:1001300080409040E1F700C000008BB18F70806379
:100140008BB925E02A95F1F70000589A85E08A9549
:10015000F1F70000589890EF9A95F1F78FE19EE43F
:100160000197F1F700C0000095E09A95F1F70000C3
:10017000589A25E02A95F1F70000589880EF8A9563
:10018000F1F78FE193E00197F1F700C0000095E0EF
:100190009A95F1F70000589A25E02A95F1F70000AA
:1001A000589880EF8A95F1F78BB18F7080628BB988
:1001B00095E09A95F1F70000589A25E02A95F1F715
:1001C0000000589880EF8A95F1F760E088E20E947D
:1001D000530060E088E00E94530060E081E00E94EC
:1001E000530060E08CE00E94530060E080E80E94D1
:1001F00053000895CF93DF93EC018881882339F071
:10020000219661E00E94530089918111FACFDF911C
:10021000CF910895E9E6F0E080818A6080838DB314
:1002200083608DBB14B888E387B983EF8AB978946B
:100230000E94920082E091E00E94FA00D4E0C1E0C6
:1002400012E08091AE01833029F0D8F3843009F4B4
:1002500095C09DC08091AD01823049F128F488237A
:1002600041F0813099F0EDCF833079F18430D9F1CC
:10027000E8CF60E080E80E9453008FE091E00E94A8
:10028000FA001E99DECFC093AD01DBCF60E080E8BD
:100290000E9453008FE191E00E94FA00439A449A31
:1002A0001999CFCF1B99CDCF1093AD01CACF60E084
:1002B00080E80E9453008FE291E00E94FA00459886
:1002C0001C99BFCFD093AD01BCCF60E080E80E9405
:1002D00053008FE391E00E94FA00459A1D99B1CF37
:1002E000D093AD01AECF60E080E80E9453008FE470
:1002F00091E00E94FA00439A449A1999A2CF1B995F
:10030000A0CF60E080E80E9453008FE591E00E945A
:10031000FA008091AC018F5F8093AC019091010154
:10032000891329C0809100018F5F80930001109292
:10033000AC0160E080E80E9453008FE691E00E94EB
:10034000FA002FEF83ED90E3215080409040E1F7D9
:1003500000C0000060E080E80E9453008FE791E059
:100360000E94FA002FEF83ED90E3215080409040EF
:10037000E1F700C000001092AD0163CF60E080E8BB
:100380000E9453008FE891E00E94FA005ACF60E08B
:100390008C2F0E9453008FE991E00E94FA0051CF08
:1003A0001F920F920FB60F9211248F9385E08093C6
:1003B000AE01449A459A43984A9BFECF8F910F9085
:1003C0000FBE0F901F9018951F920F920FB60F92AD
:1003D00011248F939F938091AE01833039F08091E7
:1003E000AE01843029F08091AE0103C084E001C0E9
:1003F00083E08093AE018FE39CE90197F1F700C0A1
:1004000000009F918F910F900FBE0F901F90189535
:04041000F894FFCF8E
:10041400010348656C6C6F20746865726521005730
:10042400616974696E6720626F7820202020004221
:100434006F78206465746563746564202020004CC3
:100444006F6164696E6720626F782020202000430A
:100454006C6F73696E6720646973702E202000527C
:10046400656C656173696E6720626F782020004255
:100474006F782066696E6973686564202020004C7B
:100484006F742066696E6973686564202020005368
:1004940074617274206E657874206C6F74200053DC
:1004A400797374656D207061757365642E2E0053C5
:0C04B400595354454D204552524F520000
:00000001FF
