S024000049484D5F456E766173655F4C756361734D4D5F4D61746865757352572E7372656391
S11300000C9434000C9403030C9417030C945100C7
S11300100C9451000C9451000C9451000C94510018
S11300200C9451000C9451000C9451000C94510008
S11300300C9451000C9451000C9451000C945100F8
S11300400C9451000C9451000C9451000C945100E8
S11300500C9451000C9451000C9451000C945100D8
S11300600C9451000C94510011241FBECFEFD8E022
S1130070DEBFCDBF12E0A0E0B1E0E6E8FCE002C0E4
S113008005900D92AE31B107D9F722E0AEE1B2E0AE
S113009001C01D92A632B207E1F70E940A010C9436
S11300A041060C940000662319F0613019F003C076
S11300B0599801C0599A9BB19F70282F207F922B89
S11300C09BB945E04A95F1F70000589A95E09A9556
S11300D0F1F70000589840EF4A95F1F72BB1922FB1
S11300E09F7040E1849F90011124292B2BB995E046
S11300F09A95F1F70000589A45E04A95F1F7000007
S1130100589890EF9A95F1F7843040F4611106C045
S11301108FE39FE10197F1F700C000008BB18F706E
S11301208BB90895599858982FEF89EF90E0215092
S113013080409040E1F700C000008BB18F70806375
S11301408BB925E02A95F1F70000589A85E08A9545
S1130150F1F70000589890EF9A95F1F78FE19EE43B
S11301600197F1F700C0000095E09A95F1F70000BF
S1130170589A25E02A95F1F70000589880EF8A955F
S1130180F1F78FE193E00197F1F700C0000095E0EB
S11301909A95F1F70000589A25E02A95F1F70000A6
S11301A0589880EF8A95F1F78BB18F7080628BB984
S11301B095E09A95F1F70000589A25E02A95F1F711
S11301C00000589880EF8A95F1F760E088E20E9479
S11301D0530060E088E00E94530060E081E00E94E8
S11301E0530060E08CE00E94530060E080E80E94CD
S11301F053000895CF93DF93EC018881882339F06D
S1130200219661E00E94530089918111FACFDF9118
S1130210CF910895CF93DF93CDB7DEB761970FB633
S1130220F894DEBF0FBECDBFE9E6F0E080818A60BE
S113023080838DB383608DBB14B888E387B983EF63
S11302408AB978940E94920088E091E00E94FA00B2
S11302502FEF33ED80E3215030408040E1F700C0C0
S113026000006894BB24B2F80F2EF3E0CF2EF02DDB
S11302700F2EF3E68F2EF1E09F2EF02D0F2EF1E1DD
S1130280AF2EF02D9E012F5F3F4F79016894DD243E
S1130290D1F880912502823009F4D0C028F4882353
S11302A061F0813009F1A6C1843009F4DEC008F49C
S11302B0CFC0853009F495C19DC1109224024398A2
S11302C04498459A60E080E80E94530088E191E0F8
S11302D00E94FA001899DDCF1A99DBCF1D99D9CF66
S11302E081E080932502D5CF60E081E00E94530035
S11302F085E0E2E0F1E0AFE1B2E001900D928A9591
S1130300E1F700E010E060E080E80E94530084E13F
S113031092E00E94FA0060E080EC0E945300E02F1B
S1130320F0E0E15EFD4F80E3810F80838FE192E096
S11303300E94FA001F9B04C0309B02C03199FACF7F
S11303401F9911C0193010F41F5F01C010E03FEF76
S113035080E792E0315080409040E1F700C0000017
S11303601F9BFECFD0CF309911C0112311F0115033
S113037001C019E02FEF30E782E021503040804087
S1130380E1F700C00000309BFECFBDCF3199BBCF59
S1130390033009F046C044E050E06FE172E088E2C7
S11303A091E00E943B03892B39F4D092250260E04E
S11303B081E00E94530042C060E080EC0E94530040
S11303C08DE291E00E94FA009FEF23ED30E391501B
S11303D020403040E1F700C0000060E081E00E946E
S11303E053008AE391E00E94FA008FEF91EE24E03B
S11303F0815090402040E1F700C0000060E081E0BF
S11304000E94530060E080EC0E94530085E0E2E02B
S1130410F1E0AFE1B2E001900D928A95E1F700E0DE
S113042001C00F5F319BFECF3FEF80E792E0315078
S113043080409040E1F700C0000065CF60E080E8B4
S11304400E94530086E491E00E94FA00C0922502C3
S113045060E080E80E94530083E591E00E94FA0086
S1130460329917CFB092250214CF80911E0290E0EA
S113047001969F938F93809100011F928F939F9277
S11304808F921F92AF92FF92EF920E94490360E015
S113049080EC0E945300C7010E94FA00809124025C
S11304A00FB6F894DEBF0FBECDBF823051F128F4F1
S11304B0882341F08130A1F0ECCE833081F1843087
S11304C0E1F1E7CE60E080E80E94530087E791E025
S11304D00E94FA001E99DDCE81E080932402D9CED9
S11304E060E080E80E94530087E891E00E94FA00EF
S11304F0439A449A1999CDCE1B99CBCED09224021B
S1130500C8CE60E080E80E94530087E991E00E9431
S1130510FA0045981C99BDCEC0922402BACE60E080
S113052080E80E94530087EA91E00E94FA00459A0D
S11305301D99AFCEB0922402ACCE60E080E80E9458
S1130540530087EB91E00E94FA004398449818996D
S1130550A0CE1A999ECE60E080E80E94530087ECFA
S113056091E00E94FA003FEF87EA91E63150804023
S11305709040E1F700C0000080911E028F5F8093DD
S11305801E0290910101891329C0809100018F5F9F
S11305908093000110921E0260E080E80E945300E4
S11305A087ED91E00E94FA002FEF33ED80E32150B4
S11305B030408040E1F700C0000060E080E80E9425
S11305C0530087EE91E00E94FA009FEF23ED30E3A1
S11305D0915020403040E1F700C000001092240206
S11305E058CE60E080E80E94530087EF91E00E94BB
S11305F0FA004FCE60E081E00E94530087E092E071
S11306000E94FA0046CE1F920F920FB60F92112449
S11306108F9386E080932502449A459A43984A9B97
S1130620FECF8F910F900FBE0F901F9018951F92C1
S11306300F920FB60F9211248F939F9380912502EE
S1130640843039F080912502853029F0809125028B
S113065003C085E001C084E0809325028FE39CE918
S11306600197F1F700C000009F918F910F900FBE8A
S11306700F901F901895FB01DC014150504030F061
S11306808D910190801919F40020B9F7881B990BFA
S11306900895AEE0B0E0EFE4F3E00C9418060D89A1
S11306A01E898F89988D26E02C831A83098397FFEE
S11306B002C080E090E801979E838D83AE01455E81
S11306C05F4F698D7A8DCE0101960E9479034D8129
S11306D05E8157FD0AC02F813885421753070CF4F9
S11306E09A01F801E20FF31F10822E96E4E00C94B5
S11306F03406ABE0B0E0EFE7F3E00C940A066C01DB
S11307007B018A01FC0117821682838181FFCCC19F
S1130710CE0101963C01F6019381F70193FD859189
S113072093FF81917F01882309F4BAC1853239F49A
S113073093FD859193FF81917F01853229F4B60160
S113074090E00E947005E7CF912C212C312CFFE121
S1130750F315D8F08B3279F038F4803279F08332A3
S1130760A1F4232D20611DC08D3261F0803369F422
S1130770232D216016C0832D8260382EE32DE46082
S11307803E2E2AC0F32DF8601DC037FC2DC020ED8D
S1130790280F2A3040F08E32B9F436FC81C1232D63
S11307A02064322E19C036FE06C08AE0989E200DC1
S11307B01124922E11C0EAE02E9E200D1124222E27
S11307C0F32DF0623F2E08C08C3621F4832D80680F
S11307D0382E02C0883641F4F70193FD859193FFCA
S11307E081917F018111B3CF982F9F7D95549330D0
S11307F028F40C5F1F4F9FE399830DC0833631F0BB
S1130800833771F0833509F059C021C0F801808124
S113081089830E5F1F4F88248394912C530113C046
S11308202801F2E04F0E511CF801A080B18036FE81
S113083003C0692D70E002C06FEF7FEFC5010E9415
S113084065054C018201F32DFF773F2E16C0280168
S113085022E0420E511CF801A080B18036FE03C094
S1130860692D70E002C06FEF7FEFC5010E945A0549
S11308704C01F32DF0683F2E820133FC1BC0822D06
S113088090E088169906B0F4B60180E290E00E94E8
S113089070052A94F4CFF50137FC859137FE8191D8
S11308A05F01B60190E00E94700521102A9421E0B6
S11308B0821A91088114910471F7E8C0843611F00A
S11308C0893641F5F80137FE07C060817181828164
S11308D093810C5F1F4F08C060817181072E000C4B
S11308E0880B990B0E5F1F4FF32DFF763F2E97FF5A
S11308F009C090958095709561957F4F8F4F9F4F5C
S1130900F0683F2E2AE030E0A3010E94AC05882E57
S1130910861845C0853731F4232D2F7EB22E2AE068
S113092030E025C0932D997FB92E8F36C1F018F48D
S1130930883579F0B5C0803719F0883721F0B0C018
S1130940E92FE061BE2EB4FE0DC0FB2DF460BF2E76
S113095009C034FE0AC0292F2660B22E06C028E042
S113096030E005C020E130E002C020E132E0F801CF
S1130970B7FE07C060817181828193810C5F1F4F34
S113098006C06081718180E090E00E5F1F4FA3017B
S11309900E94AC05882E8618FB2DFF773F2E36FE6D
S11309A00DC0232D2E7FA22E891458F434FE0BC0C3
S11309B032FC09C0832D8E7EA82E05C0B82CA32C32
S11309C003C0B82C01C0B92CA4FE0FC0FE01E80D71
S11309D0F11D8081803321F49A2D997EA92E09C0BE
S11309E0A2FE06C0B394B39404C08A2D867809F09D
S11309F0B394A3FC11C0A0FE06C0B21488F4280C62
S1130A00922C9B180EC0B21460F4B60180E290E000
S1130A100E947005B394F7CFB21418F42B1802C0D7
S1130A20982C212CA4FE10C0B60180E390E00E9413
S1130A307005A2FE17C0A1FC03C088E790E002C0C5
S1130A4088E590E0B6010CC08A2D867859F0A1FEA5
S1130A5002C08BE201C080E2A7FC8DE2B60190E007
S1130A600E947005891438F4B60180E390E00E9476
S1130A7070059A94F7CF8A94F301E80DF11D8081F3
S1130A80B60190E00E9470058110F5CF222009F490
S1130A9042CEB60180E290E00E9470052A94F6CF1F
S1130AA0F6018681978102C08FEF9FEF2B96E2E1DA
S1130AB00C942606FC010590615070400110D8F793
S1130AC0809590958E0F9F1F0895FC016150704092
S1130AD001900110D8F7809590958E0F9F1F08956F
S1130AE00F931F93CF93DF93FB01238121FD03C059
S1130AF08FEF9FEF2CC022FF16C0468157812481BF
S1130B0035814217530744F4A081B1819D012F5FC1
S1130B103F4F318320838C93268137812F5F3F4F52
S1130B203783268314C08B01EC01FB010084F1851B
S1130B30E02D0995892BE1F6D80116968D919C91AB
S1130B401797019617969C938E931697CE01DF9173
S1130B50CF911F910F910895FA01AA27283051F1DE
S1130B60203181F1E8946F936E7F6E5F7F4F8F4FDA
S1130B709F4FAF4FB1E03ED0B4E03CD0670F781F39
S1130B80891F9A1FA11D680F791F8A1F911DA11D1E
S1130B906A0F711D811D911DA11D20D009F4689457
S1130BA03F912AE0269F11243019305D3193DEF6FF
S1130BB0CF010895462F4770405D4193B3E00FD0B5
S1130BC0C9F7F6CF462F4F70405D4A3318F0495DA0
S1130BD031FD4052419302D0A9F7EACFB4E0A69583
S1130BE09795879577956795BA95C9F700976105A5
S1130BF0710508959B01AC010A2E069457954795FB
S1130C0037952795BA95C9F7620F731F841F951FEF
S1130C10A01D08952F923F924F925F926F927F9200
S1130C208F929F92AF92BF92CF92DF92EF92FF92F8
S1130C300F931F93CF93DF93CDB7DEB7CA1BDB0BA4
S1130C400FB6F894DEBF0FBECDBF09942A88398849
S1130C5048885F846E847D848C849B84AA84B98450
S1130C60C884DF80EE80FD800C811B81AA81B9815C
S1130C70CE0FD11D0FB6F894DEBF0FBECDBFED0170
S1090C800895F894FFCF73
S1130C860103302020200000426F6F74696E672EC6
S1130C962E2E202020202000576169742073746151
S1130CA6727420706F732E00313131310057726FB8
S1130CB66E67207061737377640064756D62206D6E
S1130CC67466636B7200436F6E662E207061726188
S1130CD66D2E0052656164792070726573732053BA
S1130CE65452004C6F7420253032692C20626F7880
S1130CF62025303269200057616974696E67206265
S1130D066F782020202000426F7820646574656324
S1130D16746564202020004C6F6164696E672062EC
S1130D266F782020202000436C6F73696E672064FF
S1130D366973702E20200052656C656173696E6755
S1130D4620626F78202000426F782066696E69738E
S1130D56686564202020004C6F742066696E697390
S1130D66686564202020005374617274206E65786F
S1130D7674206C6F74200053797374656D207061F0
S1130D86757365642E2E0053595354454D204552B0
S1110D96524F520050617373776F72643A00CB
S9030000FC
