S024000049484D5F456E766173655F4C756361734D4D5F4D61746865757352572E7372656391
S11300000C9434000C946E010C9482010C945100F5
S11300100C9451000C9451000C9451000C94510018
S11300200C9451000C9451000C9451000C94510008
S11300300C9451000C9451000C9451000C945100F8
S11300400C9451000C9451000C9451000C945100E8
S11300500C9451000C9451000C9451000C945100D8
S11300600C9451000C94510011241FBECFEFD8E022
S1130070DEBFCDBF11E0A0E0B1E0E0E5F3E002C0F7
S113008005900D92A631B107D9F721E0A6E1B1E0C0
S113009001C01D92A831B207E1F70E940A010C9435
S11300A0A6010C940000662319F0613019F003C016
S11300B0599801C0599A9BB19F70282F207F922B89
S11300C09BB945E04A95F1F70000589A95E09A9556
S11300D0F1F70000589840EF4A95F1F72BB1922FB1
S11300E09F7040E1849F90011124292B2BB995E046
S11300F09A95F1F70000589A45E04A95F1F7000007
S1130100589890EF9A95F1F7843040F4611106C045
S11301108FE39FE10197F1F700C000008BB18F706E
S11301208BB90895599858982FEF89EF90E0215092
S113013080409040E1F700C000008BB18F70806375
S11301408BB925E02A95F1F70000589A85E08A9545
S1130150F1F70000589890EF9A95F1F78FE19EE43B
S11301600197F1F700C0000095E09A95F1F70000BF
S1130170589A25E02A95F1F70000589880EF8A955F
S1130180F1F78FE193E00197F1F700C0000095E0EB
S11301909A95F1F70000589A25E02A95F1F70000A6
S11301A0589880EF8A95F1F78BB18F7080628BB984
S11301B095E09A95F1F70000589A25E02A95F1F711
S11301C00000589880EF8A95F1F760E088E20E9479
S11301D0530060E088E00E94530060E081E00E94E8
S11301E0530060E08CE00E94530060E080E80E94CD
S11301F053000895CF93DF93EC018881882339F06D
S1130200219661E00E94530089918111FACFDF9118
S1130210CF910895E9E6F0E080818A6080838DB310
S113022083608DBB14B888E387B983EF8AB9789467
S11302300E94920080E091E00E94FA002FEF87EA8A
S113024091E6215080409040E1F700C000000E94F8
S113025092008DE091E00E94FA00C4E0D2E0809127
S113026017018330E1F780911601823011F128F4EF
S1130270882341F0813081F0F2CF833001F1843062
S113028021F1EDCF60E081E00E9453001E99E7CF99
S113029081E080931601E3CF60E081E00E94530087
S11302A0439A449A1999DBCF1B99D9CFD09316015D
S11302B0D6CF45981C99D3CFC0931601D0CF459A79
S11302C01D99CDCFC0931601CACF439A449A199968
S11302D0C6CF1B99C4CFD0931601C1CF1F920F92E2
S11302E00FB60F9211248F9385E080931701449ADF
S11302F0459A43984A9BFECF8F910F900FBE0F9063
S11303001F9018951F920F920FB60F9211248F937E
S11303109F9380911701833039F0809117018430C5
S113032029F08091170103C084E001C083E0809329
S113033017018FE39CE90197F1F700C000009F913A
S11303408F910F900FBE0F901F901895F894FFCFC8
S113035048656C6C6F20746865726521004870652F
S10903606E697321000028
S9030000FC
