:100000000C9434000C940F010C9428010C945100B2
:100010000C9451000C9451000C9451000C9451001C
:100020000C9451000C9451000C9451000C9451000C
:100030000C9451000C9451000C9451000C945100FC
:100040000C9451000C9451000C9451000C945100EC
:100050000C9451000C9451000C9451000C945100DC
:100060000C9451000C94510011241FBECFEFD8E026
:10007000DEBFCDBF11E0A0E0B1E0E0EBF2E002C0F6
:1000800005900D92AE30B107D9F721E0AEE0B1E0B6
:1000900001C01D92A231B207E1F70E94F8000C9452
:1000A00056010C94000059989BB1907F282F2F7017
:1000B000922B9BB995E09A95F1F70000589A95E03C
:1000C0009A95F1F70000589890EF9A95F1F79BB147
:1000D000907F9BB9843030F48FE39FE10197F1F773
:1000E00000C0000008958AB18F608AB95998589865
:1000F0002FEF89EF90E0215080409040E1F700C061
:10010000000025E02A95F1F70000589A85E08A95CD
:10011000F1F70000589890EF9A95F1F78FE19EE47F
:100120000197F1F700C0000095E09A95F1F7000003
:10013000589A25E02A95F1F70000589880EF8A95A3
:10014000F1F78FE193E00197F1F700C0000095E02F
:100150009A95F1F70000589A25E02A95F1F70000EA
:10016000589880EF8A95F1F7599A95E09A95F1F7AA
:100170000000589A25E02A95F1F70000589880EF82
:100180008A95F1F788E20E94530088E00E945300AC
:1001900081E00E9453008CE00E94530080E80E949E
:1001A00053000895599A9BB1907F8F70892B8BB91A
:1001B00085E08A95F1F70000589A85E08A95F1F775
:1001C0000000589880EF8A95F1F78BB1807F8BB94A
:1001D0000895CF93DF93EC018881882331F0219635
:1001E0000E94D20089918111FBCFDF91CF910895B8
:1001F00014B888E384B98AB18C608AB90E9473000C
:1002000080E091E00E94E90080911001909111013D
:100210000397D1F780910E0190910F01F5CF1F92B6
:100220000F920FB60F9211248F939F9385E090E069
:100230009093110180931001449A459A43984A9BE8
:10024000FECF9F918F910F900FBE0F901F9018952A
:100250001F920F920FB60F9211248F939F9380914C
:10026000100190911101039759F080911001909124
:100270001101049741F0809110019091110105C086
:1002800084E090E002C083E090E0909311018093BD
:1002900010018FE39CE90197F1F700C000009F91E6
:1002A0008F910F900FBE0F901F901895F894FFCF6D
:0E02B00048656C6C6F207468657265210000F3
:00000001FF
