:100000000C9434000C9449000C9449000C94490061
:100010000C9449000C9449000C9449000C9449003C
:100020000C9449000C9449000C9449000C9449002C
:100030000C9449000C9449000C9449000C9449001C
:100040000C9449000C9449000C9449000C9449000C
:100050000C9449000C9449000C9449000C944900FC
:100060000C9449000C94490011241FBECFEFD8E036
:10007000DEBFCDBF11E0A0E0B1E0E0E3F2E002C0FE
:1000800005900D92AE30B107D9F70E9405010C948E
:1000900016010C9400006115710521F061307105A5
:1000A00019F00895599801C0599A9BB1907F282F53
:1000B0002F70922B9BB995E09A95F1F70000589A12
:1000C00095E09A95F1F70000589890EF9A95F1F71E
:1000D0009BB1907F9BB9672B41F4843030F48FE360
:1000E0009FE10197F1F700C0000008958AB18F6089
:1000F0008AB9599858982FEF89EF90E021508040A5
:100100009040E1F700C0000025E02A95F1F70000DB
:10011000589A85E08A95F1F70000589890EF9A95E3
:10012000F1F78FE19EE40197F1F700C0000095E040
:100130009A95F1F70000589A25E02A95F1F700000A
:10014000589880EF8A95F1F78FE193E00197F1F7E6
:1001500000C0000095E09A95F1F70000589A25E05C
:100160002A95F1F70000589880EF8A95F1F7599A8F
:1001700095E09A95F1F70000589A25E02A95F1F755
:100180000000589880EF8A95F1F760E070E088E20F
:100190000E944B0060E070E088E00E944B0060E04D
:1001A00070E081E00E944B0060E070E08CE00E9413
:1001B0004B0060E070E080E80E944B000895CF9310
:1001C000DF93EC018881882341F021966BB170E0C8
:1001D0000E944B0089918111F9CFDF91CF91089551
:1001E000CF93DF93EC01FC018491882359F06BB12C
:1001F000FE01849170E00E944B002196FE018491E3
:100200008111F5CFDF91CF9108950E94760080E0B3
:1002100091E00E94DF00FFCF1F920F920FB60F9266
:1002200011240F900FBE0F901F901895F894FFCFD8
:0E02300068656C6C6F2C20576F726C64210037
:00000001FF
